{
	"data": {
		"bytecode": {
			"linkReferences": {},
			"object": "608060405234801561000f575f80fd5b50610afc8061001d5f395ff3fe608060405234801561000f575f80fd5b5060043610610034575f3560e01c80631dda6541146100385780636be0d6bf14610042575b5f80fd5b610040610060565b005b61004a6100c6565b6040516100579190610170565b60405180910390f35b60405161006c906100e9565b604051809103905ff080158015610085573d5f803e3d5ffd5b505f806101000a81548173ffffffffffffffffffffffffffffffffffffffff021916908373ffffffffffffffffffffffffffffffffffffffff160217905550565b5f8054906101000a900473ffffffffffffffffffffffffffffffffffffffff1681565b61093d8061018a83390190565b5f73ffffffffffffffffffffffffffffffffffffffff82169050919050565b5f819050919050565b5f61013861013361012e846100f6565b610115565b6100f6565b9050919050565b5f6101498261011e565b9050919050565b5f61015a8261013f565b9050919050565b61016a81610150565b82525050565b5f6020820190506101835f830184610161565b9291505056fe608060405234801561000f575f80fd5b506109208061001d5f395ff3fe608060405234801561000f575f80fd5b5060043610610060575f3560e01c80632e64cec1146100645780632ebce631146100825780636057361d146100b35780636d83bc57146100cf5780636f760f41146100ed5780638bab8dd514610109575b5f80fd5b61006c610139565b60405161007991906102cd565b60405180910390f35b61009c60048036038101906100979190610321565b610141565b6040516100aa9291906103d6565b60405180910390f35b6100cd60048036038101906100c89190610321565b6101f6565b005b6100d76101ff565b6040516100e491906102cd565b60405180910390f35b61010760048036038101906101029190610530565b610204565b005b610123600480360381019061011e919061058a565b610288565b60405161013091906102cd565b60405180910390f35b5f8054905090565b60018181548110610150575f80fd5b905f5260205f2090600202015f91509050805f015490806001018054610175906105fe565b80601f01602080910402602001604051908101604052809291908181526020018280546101a1906105fe565b80156101ec5780601f106101c3576101008083540402835291602001916101ec565b820191905f5260205f20905b8154815290600101906020018083116101cf57829003601f168201915b5050505050905082565b805f8190555050565b5f5481565b6001604051806040016040528083815260200184815250908060018154018082558091505060019003905f5260205f2090600202015f909190919091505f820151815f0155602082015181600101908161025e91906107cb565b5050508060028360405161027291906108d4565b9081526020016040518091039020819055505050565b6002818051602081018201805184825260208301602085012081835280955050505050505f915090505481565b5f819050919050565b6102c7816102b5565b82525050565b5f6020820190506102e05f8301846102be565b92915050565b5f604051905090565b5f80fd5b5f80fd5b610300816102b5565b811461030a575f80fd5b50565b5f8135905061031b816102f7565b92915050565b5f60208284031215610336576103356102ef565b5b5f6103438482850161030d565b91505092915050565b5f81519050919050565b5f82825260208201905092915050565b5f5b83811015610383578082015181840152602081019050610368565b5f8484015250505050565b5f601f19601f8301169050919050565b5f6103a88261034c565b6103b28185610356565b93506103c2818560208601610366565b6103cb8161038e565b840191505092915050565b5f6040820190506103e95f8301856102be565b81810360208301526103fb818461039e565b90509392505050565b5f80fd5b5f80fd5b7f4e487b71000000000000000000000000000000000000000000000000000000005f52604160045260245ffd5b6104428261038e565b810181811067ffffffffffffffff821117156104615761046061040c565b5b80604052505050565b5f6104736102e6565b905061047f8282610439565b919050565b5f67ffffffffffffffff82111561049e5761049d61040c565b5b6104a78261038e565b9050602081019050919050565b828183375f83830152505050565b5f6104d46104cf84610484565b61046a565b9050828152602081018484840111156104f0576104ef610408565b5b6104fb8482856104b4565b509392505050565b5f82601f83011261051757610516610404565b5b81356105278482602086016104c2565b91505092915050565b5f8060408385031215610546576105456102ef565b5b5f83013567ffffffffffffffff811115610563576105626102f3565b5b61056f85828601610503565b92505060206105808582860161030d565b9150509250929050565b5f6020828403121561059f5761059e6102ef565b5b5f82013567ffffffffffffffff8111156105bc576105bb6102f3565b5b6105c884828501610503565b91505092915050565b7f4e487b71000000000000000000000000000000000000000000000000000000005f52602260045260245ffd5b5f600282049050600182168061061557607f821691505b602082108103610628576106276105d1565b5b50919050565b5f819050815f5260205f209050919050565b5f6020601f8301049050919050565b5f82821b905092915050565b5f6008830261068a7fffffffffffffffffffffffffffffffffffffffffffffffffffffffffffffffff8261064f565b610694868361064f565b95508019841693508086168417925050509392505050565b5f819050919050565b5f6106cf6106ca6106c5846102b5565b6106ac565b6102b5565b9050919050565b5f819050919050565b6106e8836106b5565b6106fc6106f4826106d6565b84845461065b565b825550505050565b5f90565b610710610704565b61071b8184846106df565b505050565b5b8181101561073e576107335f82610708565b600181019050610721565b5050565b601f821115610783576107548161062e565b61075d84610640565b8101602085101561076c578190505b61078061077885610640565b830182610720565b50505b505050565b5f82821c905092915050565b5f6107a35f1984600802610788565b1980831691505092915050565b5f6107bb8383610794565b9150826002028217905092915050565b6107d48261034c565b67ffffffffffffffff8111156107ed576107ec61040c565b5b6107f782546105fe565b610802828285610742565b5f60209050601f831160018114610833575f8415610821578287015190505b61082b85826107b0565b865550610892565b601f1984166108418661062e565b5f5b8281101561086857848901518255600182019150602085019450602081019050610843565b868310156108855784890151610881601f891682610794565b8355505b6001600288020188555050505b505050505050565b5f81905092915050565b5f6108ae8261034c565b6108b8818561089a565b93506108c8818560208601610366565b80840191505092915050565b5f6108df82846108a4565b91508190509291505056fea2646970667358221220012e99b32b5de9a45ba4215ac25427f5f1e4d5e7202a672551d89b96deb2763764736f6c63430008180033a2646970667358221220971920ddc936a15f9bacfa4836445e529b78b06206a6e28cb9d81b24eb049fb564736f6c63430008180033",
			"opcodes": "PUSH1 0x80 PUSH1 0x40 MSTORE CALLVALUE DUP1 ISZERO PUSH2 0xF JUMPI PUSH0 DUP1 REVERT JUMPDEST POP PUSH2 0xAFC DUP1 PUSH2 0x1D PUSH0 CODECOPY PUSH0 RETURN INVALID PUSH1 0x80 PUSH1 0x40 MSTORE CALLVALUE DUP1 ISZERO PUSH2 0xF JUMPI PUSH0 DUP1 REVERT JUMPDEST POP PUSH1 0x4 CALLDATASIZE LT PUSH2 0x34 JUMPI PUSH0 CALLDATALOAD PUSH1 0xE0 SHR DUP1 PUSH4 0x1DDA6541 EQ PUSH2 0x38 JUMPI DUP1 PUSH4 0x6BE0D6BF EQ PUSH2 0x42 JUMPI JUMPDEST PUSH0 DUP1 REVERT JUMPDEST PUSH2 0x40 PUSH2 0x60 JUMP JUMPDEST STOP JUMPDEST PUSH2 0x4A PUSH2 0xC6 JUMP JUMPDEST PUSH1 0x40 MLOAD PUSH2 0x57 SWAP2 SWAP1 PUSH2 0x170 JUMP JUMPDEST PUSH1 0x40 MLOAD DUP1 SWAP2 SUB SWAP1 RETURN JUMPDEST PUSH1 0x40 MLOAD PUSH2 0x6C SWAP1 PUSH2 0xE9 JUMP JUMPDEST PUSH1 0x40 MLOAD DUP1 SWAP2 SUB SWAP1 PUSH0 CREATE DUP1 ISZERO DUP1 ISZERO PUSH2 0x85 JUMPI RETURNDATASIZE PUSH0 DUP1 RETURNDATACOPY RETURNDATASIZE PUSH0 REVERT JUMPDEST POP PUSH0 DUP1 PUSH2 0x100 EXP DUP2 SLOAD DUP2 PUSH20 0xFFFFFFFFFFFFFFFFFFFFFFFFFFFFFFFFFFFFFFFF MUL NOT AND SWAP1 DUP4 PUSH20 0xFFFFFFFFFFFFFFFFFFFFFFFFFFFFFFFFFFFFFFFF AND MUL OR SWAP1 SSTORE POP JUMP JUMPDEST PUSH0 DUP1 SLOAD SWAP1 PUSH2 0x100 EXP SWAP1 DIV PUSH20 0xFFFFFFFFFFFFFFFFFFFFFFFFFFFFFFFFFFFFFFFF AND DUP2 JUMP JUMPDEST PUSH2 0x93D DUP1 PUSH2 0x18A DUP4 CODECOPY ADD SWAP1 JUMP JUMPDEST PUSH0 PUSH20 0xFFFFFFFFFFFFFFFFFFFFFFFFFFFFFFFFFFFFFFFF DUP3 AND SWAP1 POP SWAP2 SWAP1 POP JUMP JUMPDEST PUSH0 DUP2 SWAP1 POP SWAP2 SWAP1 POP JUMP JUMPDEST PUSH0 PUSH2 0x138 PUSH2 0x133 PUSH2 0x12E DUP5 PUSH2 0xF6 JUMP JUMPDEST PUSH2 0x115 JUMP JUMPDEST PUSH2 0xF6 JUMP JUMPDEST SWAP1 POP SWAP2 SWAP1 POP JUMP JUMPDEST PUSH0 PUSH2 0x149 DUP3 PUSH2 0x11E JUMP JUMPDEST SWAP1 POP SWAP2 SWAP1 POP JUMP JUMPDEST PUSH0 PUSH2 0x15A DUP3 PUSH2 0x13F JUMP JUMPDEST SWAP1 POP SWAP2 SWAP1 POP JUMP JUMPDEST PUSH2 0x16A DUP2 PUSH2 0x150 JUMP JUMPDEST DUP3 MSTORE POP POP JUMP JUMPDEST PUSH0 PUSH1 0x20 DUP3 ADD SWAP1 POP PUSH2 0x183 PUSH0 DUP4 ADD DUP5 PUSH2 0x161 JUMP JUMPDEST SWAP3 SWAP2 POP POP JUMP INVALID PUSH1 0x80 PUSH1 0x40 MSTORE CALLVALUE DUP1 ISZERO PUSH2 0xF JUMPI PUSH0 DUP1 REVERT JUMPDEST POP PUSH2 0x920 DUP1 PUSH2 0x1D PUSH0 CODECOPY PUSH0 RETURN INVALID PUSH1 0x80 PUSH1 0x40 MSTORE CALLVALUE DUP1 ISZERO PUSH2 0xF JUMPI PUSH0 DUP1 REVERT JUMPDEST POP PUSH1 0x4 CALLDATASIZE LT PUSH2 0x60 JUMPI PUSH0 CALLDATALOAD PUSH1 0xE0 SHR DUP1 PUSH4 0x2E64CEC1 EQ PUSH2 0x64 JUMPI DUP1 PUSH4 0x2EBCE631 EQ PUSH2 0x82 JUMPI DUP1 PUSH4 0x6057361D EQ PUSH2 0xB3 JUMPI DUP1 PUSH4 0x6D83BC57 EQ PUSH2 0xCF JUMPI DUP1 PUSH4 0x6F760F41 EQ PUSH2 0xED JUMPI DUP1 PUSH4 0x8BAB8DD5 EQ PUSH2 0x109 JUMPI JUMPDEST PUSH0 DUP1 REVERT JUMPDEST PUSH2 0x6C PUSH2 0x139 JUMP JUMPDEST PUSH1 0x40 MLOAD PUSH2 0x79 SWAP2 SWAP1 PUSH2 0x2CD JUMP JUMPDEST PUSH1 0x40 MLOAD DUP1 SWAP2 SUB SWAP1 RETURN JUMPDEST PUSH2 0x9C PUSH1 0x4 DUP1 CALLDATASIZE SUB DUP2 ADD SWAP1 PUSH2 0x97 SWAP2 SWAP1 PUSH2 0x321 JUMP JUMPDEST PUSH2 0x141 JUMP JUMPDEST PUSH1 0x40 MLOAD PUSH2 0xAA SWAP3 SWAP2 SWAP1 PUSH2 0x3D6 JUMP JUMPDEST PUSH1 0x40 MLOAD DUP1 SWAP2 SUB SWAP1 RETURN JUMPDEST PUSH2 0xCD PUSH1 0x4 DUP1 CALLDATASIZE SUB DUP2 ADD SWAP1 PUSH2 0xC8 SWAP2 SWAP1 PUSH2 0x321 JUMP JUMPDEST PUSH2 0x1F6 JUMP JUMPDEST STOP JUMPDEST PUSH2 0xD7 PUSH2 0x1FF JUMP JUMPDEST PUSH1 0x40 MLOAD PUSH2 0xE4 SWAP2 SWAP1 PUSH2 0x2CD JUMP JUMPDEST PUSH1 0x40 MLOAD DUP1 SWAP2 SUB SWAP1 RETURN JUMPDEST PUSH2 0x107 PUSH1 0x4 DUP1 CALLDATASIZE SUB DUP2 ADD SWAP1 PUSH2 0x102 SWAP2 SWAP1 PUSH2 0x530 JUMP JUMPDEST PUSH2 0x204 JUMP JUMPDEST STOP JUMPDEST PUSH2 0x123 PUSH1 0x4 DUP1 CALLDATASIZE SUB DUP2 ADD SWAP1 PUSH2 0x11E SWAP2 SWAP1 PUSH2 0x58A JUMP JUMPDEST PUSH2 0x288 JUMP JUMPDEST PUSH1 0x40 MLOAD PUSH2 0x130 SWAP2 SWAP1 PUSH2 0x2CD JUMP JUMPDEST PUSH1 0x40 MLOAD DUP1 SWAP2 SUB SWAP1 RETURN JUMPDEST PUSH0 DUP1 SLOAD SWAP1 POP SWAP1 JUMP JUMPDEST PUSH1 0x1 DUP2 DUP2 SLOAD DUP2 LT PUSH2 0x150 JUMPI PUSH0 DUP1 REVERT JUMPDEST SWAP1 PUSH0 MSTORE PUSH1 0x20 PUSH0 KECCAK256 SWAP1 PUSH1 0x2 MUL ADD PUSH0 SWAP2 POP SWAP1 POP DUP1 PUSH0 ADD SLOAD SWAP1 DUP1 PUSH1 0x1 ADD DUP1 SLOAD PUSH2 0x175 SWAP1 PUSH2 0x5FE JUMP JUMPDEST DUP1 PUSH1 0x1F ADD PUSH1 0x20 DUP1 SWAP2 DIV MUL PUSH1 0x20 ADD PUSH1 0x40 MLOAD SWAP1 DUP2 ADD PUSH1 0x40 MSTORE DUP1 SWAP3 SWAP2 SWAP1 DUP2 DUP2 MSTORE PUSH1 0x20 ADD DUP3 DUP1 SLOAD PUSH2 0x1A1 SWAP1 PUSH2 0x5FE JUMP JUMPDEST DUP1 ISZERO PUSH2 0x1EC JUMPI DUP1 PUSH1 0x1F LT PUSH2 0x1C3 JUMPI PUSH2 0x100 DUP1 DUP4 SLOAD DIV MUL DUP4 MSTORE SWAP2 PUSH1 0x20 ADD SWAP2 PUSH2 0x1EC JUMP JUMPDEST DUP3 ADD SWAP2 SWAP1 PUSH0 MSTORE PUSH1 0x20 PUSH0 KECCAK256 SWAP1 JUMPDEST DUP2 SLOAD DUP2 MSTORE SWAP1 PUSH1 0x1 ADD SWAP1 PUSH1 0x20 ADD DUP1 DUP4 GT PUSH2 0x1CF JUMPI DUP3 SWAP1 SUB PUSH1 0x1F AND DUP3 ADD SWAP2 JUMPDEST POP POP POP POP POP SWAP1 POP DUP3 JUMP JUMPDEST DUP1 PUSH0 DUP2 SWAP1 SSTORE POP POP JUMP JUMPDEST PUSH0 SLOAD DUP2 JUMP JUMPDEST PUSH1 0x1 PUSH1 0x40 MLOAD DUP1 PUSH1 0x40 ADD PUSH1 0x40 MSTORE DUP1 DUP4 DUP2 MSTORE PUSH1 0x20 ADD DUP5 DUP2 MSTORE POP SWAP1 DUP1 PUSH1 0x1 DUP2 SLOAD ADD DUP1 DUP3 SSTORE DUP1 SWAP2 POP POP PUSH1 0x1 SWAP1 SUB SWAP1 PUSH0 MSTORE PUSH1 0x20 PUSH0 KECCAK256 SWAP1 PUSH1 0x2 MUL ADD PUSH0 SWAP1 SWAP2 SWAP1 SWAP2 SWAP1 SWAP2 POP PUSH0 DUP3 ADD MLOAD DUP2 PUSH0 ADD SSTORE PUSH1 0x20 DUP3 ADD MLOAD DUP2 PUSH1 0x1 ADD SWAP1 DUP2 PUSH2 0x25E SWAP2 SWAP1 PUSH2 0x7CB JUMP JUMPDEST POP POP POP DUP1 PUSH1 0x2 DUP4 PUSH1 0x40 MLOAD PUSH2 0x272 SWAP2 SWAP1 PUSH2 0x8D4 JUMP JUMPDEST SWAP1 DUP2 MSTORE PUSH1 0x20 ADD PUSH1 0x40 MLOAD DUP1 SWAP2 SUB SWAP1 KECCAK256 DUP2 SWAP1 SSTORE POP POP POP JUMP JUMPDEST PUSH1 0x2 DUP2 DUP1 MLOAD PUSH1 0x20 DUP2 ADD DUP3 ADD DUP1 MLOAD DUP5 DUP3 MSTORE PUSH1 0x20 DUP4 ADD PUSH1 0x20 DUP6 ADD KECCAK256 DUP2 DUP4 MSTORE DUP1 SWAP6 POP POP POP POP POP POP PUSH0 SWAP2 POP SWAP1 POP SLOAD DUP2 JUMP JUMPDEST PUSH0 DUP2 SWAP1 POP SWAP2 SWAP1 POP JUMP JUMPDEST PUSH2 0x2C7 DUP2 PUSH2 0x2B5 JUMP JUMPDEST DUP3 MSTORE POP POP JUMP JUMPDEST PUSH0 PUSH1 0x20 DUP3 ADD SWAP1 POP PUSH2 0x2E0 PUSH0 DUP4 ADD DUP5 PUSH2 0x2BE JUMP JUMPDEST SWAP3 SWAP2 POP POP JUMP JUMPDEST PUSH0 PUSH1 0x40 MLOAD SWAP1 POP SWAP1 JUMP JUMPDEST PUSH0 DUP1 REVERT JUMPDEST PUSH0 DUP1 REVERT JUMPDEST PUSH2 0x300 DUP2 PUSH2 0x2B5 JUMP JUMPDEST DUP2 EQ PUSH2 0x30A JUMPI PUSH0 DUP1 REVERT JUMPDEST POP JUMP JUMPDEST PUSH0 DUP2 CALLDATALOAD SWAP1 POP PUSH2 0x31B DUP2 PUSH2 0x2F7 JUMP JUMPDEST SWAP3 SWAP2 POP POP JUMP JUMPDEST PUSH0 PUSH1 0x20 DUP3 DUP5 SUB SLT ISZERO PUSH2 0x336 JUMPI PUSH2 0x335 PUSH2 0x2EF JUMP JUMPDEST JUMPDEST PUSH0 PUSH2 0x343 DUP5 DUP3 DUP6 ADD PUSH2 0x30D JUMP JUMPDEST SWAP2 POP POP SWAP3 SWAP2 POP POP JUMP JUMPDEST PUSH0 DUP2 MLOAD SWAP1 POP SWAP2 SWAP1 POP JUMP JUMPDEST PUSH0 DUP3 DUP3 MSTORE PUSH1 0x20 DUP3 ADD SWAP1 POP SWAP3 SWAP2 POP POP JUMP JUMPDEST PUSH0 JUMPDEST DUP4 DUP2 LT ISZERO PUSH2 0x383 JUMPI DUP1 DUP3 ADD MLOAD DUP2 DUP5 ADD MSTORE PUSH1 0x20 DUP2 ADD SWAP1 POP PUSH2 0x368 JUMP JUMPDEST PUSH0 DUP5 DUP5 ADD MSTORE POP POP POP POP JUMP JUMPDEST PUSH0 PUSH1 0x1F NOT PUSH1 0x1F DUP4 ADD AND SWAP1 POP SWAP2 SWAP1 POP JUMP JUMPDEST PUSH0 PUSH2 0x3A8 DUP3 PUSH2 0x34C JUMP JUMPDEST PUSH2 0x3B2 DUP2 DUP6 PUSH2 0x356 JUMP JUMPDEST SWAP4 POP PUSH2 0x3C2 DUP2 DUP6 PUSH1 0x20 DUP7 ADD PUSH2 0x366 JUMP JUMPDEST PUSH2 0x3CB DUP2 PUSH2 0x38E JUMP JUMPDEST DUP5 ADD SWAP2 POP POP SWAP3 SWAP2 POP POP JUMP JUMPDEST PUSH0 PUSH1 0x40 DUP3 ADD SWAP1 POP PUSH2 0x3E9 PUSH0 DUP4 ADD DUP6 PUSH2 0x2BE JUMP JUMPDEST DUP2 DUP2 SUB PUSH1 0x20 DUP4 ADD MSTORE PUSH2 0x3FB DUP2 DUP5 PUSH2 0x39E JUMP JUMPDEST SWAP1 POP SWAP4 SWAP3 POP POP POP JUMP JUMPDEST PUSH0 DUP1 REVERT JUMPDEST PUSH0 DUP1 REVERT JUMPDEST PUSH32 0x4E487B7100000000000000000000000000000000000000000000000000000000 PUSH0 MSTORE PUSH1 0x41 PUSH1 0x4 MSTORE PUSH1 0x24 PUSH0 REVERT JUMPDEST PUSH2 0x442 DUP3 PUSH2 0x38E JUMP JUMPDEST DUP2 ADD DUP2 DUP2 LT PUSH8 0xFFFFFFFFFFFFFFFF DUP3 GT OR ISZERO PUSH2 0x461 JUMPI PUSH2 0x460 PUSH2 0x40C JUMP JUMPDEST JUMPDEST DUP1 PUSH1 0x40 MSTORE POP POP POP JUMP JUMPDEST PUSH0 PUSH2 0x473 PUSH2 0x2E6 JUMP JUMPDEST SWAP1 POP PUSH2 0x47F DUP3 DUP3 PUSH2 0x439 JUMP JUMPDEST SWAP2 SWAP1 POP JUMP JUMPDEST PUSH0 PUSH8 0xFFFFFFFFFFFFFFFF DUP3 GT ISZERO PUSH2 0x49E JUMPI PUSH2 0x49D PUSH2 0x40C JUMP JUMPDEST JUMPDEST PUSH2 0x4A7 DUP3 PUSH2 0x38E JUMP JUMPDEST SWAP1 POP PUSH1 0x20 DUP2 ADD SWAP1 POP SWAP2 SWAP1 POP JUMP JUMPDEST DUP3 DUP2 DUP4 CALLDATACOPY PUSH0 DUP4 DUP4 ADD MSTORE POP POP POP JUMP JUMPDEST PUSH0 PUSH2 0x4D4 PUSH2 0x4CF DUP5 PUSH2 0x484 JUMP JUMPDEST PUSH2 0x46A JUMP JUMPDEST SWAP1 POP DUP3 DUP2 MSTORE PUSH1 0x20 DUP2 ADD DUP5 DUP5 DUP5 ADD GT ISZERO PUSH2 0x4F0 JUMPI PUSH2 0x4EF PUSH2 0x408 JUMP JUMPDEST JUMPDEST PUSH2 0x4FB DUP5 DUP3 DUP6 PUSH2 0x4B4 JUMP JUMPDEST POP SWAP4 SWAP3 POP POP POP JUMP JUMPDEST PUSH0 DUP3 PUSH1 0x1F DUP4 ADD SLT PUSH2 0x517 JUMPI PUSH2 0x516 PUSH2 0x404 JUMP JUMPDEST JUMPDEST DUP2 CALLDATALOAD PUSH2 0x527 DUP5 DUP3 PUSH1 0x20 DUP7 ADD PUSH2 0x4C2 JUMP JUMPDEST SWAP2 POP POP SWAP3 SWAP2 POP POP JUMP JUMPDEST PUSH0 DUP1 PUSH1 0x40 DUP4 DUP6 SUB SLT ISZERO PUSH2 0x546 JUMPI PUSH2 0x545 PUSH2 0x2EF JUMP JUMPDEST JUMPDEST PUSH0 DUP4 ADD CALLDATALOAD PUSH8 0xFFFFFFFFFFFFFFFF DUP2 GT ISZERO PUSH2 0x563 JUMPI PUSH2 0x562 PUSH2 0x2F3 JUMP JUMPDEST JUMPDEST PUSH2 0x56F DUP6 DUP3 DUP7 ADD PUSH2 0x503 JUMP JUMPDEST SWAP3 POP POP PUSH1 0x20 PUSH2 0x580 DUP6 DUP3 DUP7 ADD PUSH2 0x30D JUMP JUMPDEST SWAP2 POP POP SWAP3 POP SWAP3 SWAP1 POP JUMP JUMPDEST PUSH0 PUSH1 0x20 DUP3 DUP5 SUB SLT ISZERO PUSH2 0x59F JUMPI PUSH2 0x59E PUSH2 0x2EF JUMP JUMPDEST JUMPDEST PUSH0 DUP3 ADD CALLDATALOAD PUSH8 0xFFFFFFFFFFFFFFFF DUP2 GT ISZERO PUSH2 0x5BC JUMPI PUSH2 0x5BB PUSH2 0x2F3 JUMP JUMPDEST JUMPDEST PUSH2 0x5C8 DUP5 DUP3 DUP6 ADD PUSH2 0x503 JUMP JUMPDEST SWAP2 POP POP SWAP3 SWAP2 POP POP JUMP JUMPDEST PUSH32 0x4E487B7100000000000000000000000000000000000000000000000000000000 PUSH0 MSTORE PUSH1 0x22 PUSH1 0x4 MSTORE PUSH1 0x24 PUSH0 REVERT JUMPDEST PUSH0 PUSH1 0x2 DUP3 DIV SWAP1 POP PUSH1 0x1 DUP3 AND DUP1 PUSH2 0x615 JUMPI PUSH1 0x7F DUP3 AND SWAP2 POP JUMPDEST PUSH1 0x20 DUP3 LT DUP2 SUB PUSH2 0x628 JUMPI PUSH2 0x627 PUSH2 0x5D1 JUMP JUMPDEST JUMPDEST POP SWAP2 SWAP1 POP JUMP JUMPDEST PUSH0 DUP2 SWAP1 POP DUP2 PUSH0 MSTORE PUSH1 0x20 PUSH0 KECCAK256 SWAP1 POP SWAP2 SWAP1 POP JUMP JUMPDEST PUSH0 PUSH1 0x20 PUSH1 0x1F DUP4 ADD DIV SWAP1 POP SWAP2 SWAP1 POP JUMP JUMPDEST PUSH0 DUP3 DUP3 SHL SWAP1 POP SWAP3 SWAP2 POP POP JUMP JUMPDEST PUSH0 PUSH1 0x8 DUP4 MUL PUSH2 0x68A PUSH32 0xFFFFFFFFFFFFFFFFFFFFFFFFFFFFFFFFFFFFFFFFFFFFFFFFFFFFFFFFFFFFFFFF DUP3 PUSH2 0x64F JUMP JUMPDEST PUSH2 0x694 DUP7 DUP4 PUSH2 0x64F JUMP JUMPDEST SWAP6 POP DUP1 NOT DUP5 AND SWAP4 POP DUP1 DUP7 AND DUP5 OR SWAP3 POP POP POP SWAP4 SWAP3 POP POP POP JUMP JUMPDEST PUSH0 DUP2 SWAP1 POP SWAP2 SWAP1 POP JUMP JUMPDEST PUSH0 PUSH2 0x6CF PUSH2 0x6CA PUSH2 0x6C5 DUP5 PUSH2 0x2B5 JUMP JUMPDEST PUSH2 0x6AC JUMP JUMPDEST PUSH2 0x2B5 JUMP JUMPDEST SWAP1 POP SWAP2 SWAP1 POP JUMP JUMPDEST PUSH0 DUP2 SWAP1 POP SWAP2 SWAP1 POP JUMP JUMPDEST PUSH2 0x6E8 DUP4 PUSH2 0x6B5 JUMP JUMPDEST PUSH2 0x6FC PUSH2 0x6F4 DUP3 PUSH2 0x6D6 JUMP JUMPDEST DUP5 DUP5 SLOAD PUSH2 0x65B JUMP JUMPDEST DUP3 SSTORE POP POP POP POP JUMP JUMPDEST PUSH0 SWAP1 JUMP JUMPDEST PUSH2 0x710 PUSH2 0x704 JUMP JUMPDEST PUSH2 0x71B DUP2 DUP5 DUP5 PUSH2 0x6DF JUMP JUMPDEST POP POP POP JUMP JUMPDEST JUMPDEST DUP2 DUP2 LT ISZERO PUSH2 0x73E JUMPI PUSH2 0x733 PUSH0 DUP3 PUSH2 0x708 JUMP JUMPDEST PUSH1 0x1 DUP2 ADD SWAP1 POP PUSH2 0x721 JUMP JUMPDEST POP POP JUMP JUMPDEST PUSH1 0x1F DUP3 GT ISZERO PUSH2 0x783 JUMPI PUSH2 0x754 DUP2 PUSH2 0x62E JUMP JUMPDEST PUSH2 0x75D DUP5 PUSH2 0x640 JUMP JUMPDEST DUP2 ADD PUSH1 0x20 DUP6 LT ISZERO PUSH2 0x76C JUMPI DUP2 SWAP1 POP JUMPDEST PUSH2 0x780 PUSH2 0x778 DUP6 PUSH2 0x640 JUMP JUMPDEST DUP4 ADD DUP3 PUSH2 0x720 JUMP JUMPDEST POP POP JUMPDEST POP POP POP JUMP JUMPDEST PUSH0 DUP3 DUP3 SHR SWAP1 POP SWAP3 SWAP2 POP POP JUMP JUMPDEST PUSH0 PUSH2 0x7A3 PUSH0 NOT DUP5 PUSH1 0x8 MUL PUSH2 0x788 JUMP JUMPDEST NOT DUP1 DUP4 AND SWAP2 POP POP SWAP3 SWAP2 POP POP JUMP JUMPDEST PUSH0 PUSH2 0x7BB DUP4 DUP4 PUSH2 0x794 JUMP JUMPDEST SWAP2 POP DUP3 PUSH1 0x2 MUL DUP3 OR SWAP1 POP SWAP3 SWAP2 POP POP JUMP JUMPDEST PUSH2 0x7D4 DUP3 PUSH2 0x34C JUMP JUMPDEST PUSH8 0xFFFFFFFFFFFFFFFF DUP2 GT ISZERO PUSH2 0x7ED JUMPI PUSH2 0x7EC PUSH2 0x40C JUMP JUMPDEST JUMPDEST PUSH2 0x7F7 DUP3 SLOAD PUSH2 0x5FE JUMP JUMPDEST PUSH2 0x802 DUP3 DUP3 DUP6 PUSH2 0x742 JUMP JUMPDEST PUSH0 PUSH1 0x20 SWAP1 POP PUSH1 0x1F DUP4 GT PUSH1 0x1 DUP2 EQ PUSH2 0x833 JUMPI PUSH0 DUP5 ISZERO PUSH2 0x821 JUMPI DUP3 DUP8 ADD MLOAD SWAP1 POP JUMPDEST PUSH2 0x82B DUP6 DUP3 PUSH2 0x7B0 JUMP JUMPDEST DUP7 SSTORE POP PUSH2 0x892 JUMP JUMPDEST PUSH1 0x1F NOT DUP5 AND PUSH2 0x841 DUP7 PUSH2 0x62E JUMP JUMPDEST PUSH0 JUMPDEST DUP3 DUP2 LT ISZERO PUSH2 0x868 JUMPI DUP5 DUP10 ADD MLOAD DUP3 SSTORE PUSH1 0x1 DUP3 ADD SWAP2 POP PUSH1 0x20 DUP6 ADD SWAP5 POP PUSH1 0x20 DUP2 ADD SWAP1 POP PUSH2 0x843 JUMP JUMPDEST DUP7 DUP4 LT ISZERO PUSH2 0x885 JUMPI DUP5 DUP10 ADD MLOAD PUSH2 0x881 PUSH1 0x1F DUP10 AND DUP3 PUSH2 0x794 JUMP JUMPDEST DUP4 SSTORE POP JUMPDEST PUSH1 0x1 PUSH1 0x2 DUP9 MUL ADD DUP9 SSTORE POP POP POP JUMPDEST POP POP POP POP POP POP JUMP JUMPDEST PUSH0 DUP2 SWAP1 POP SWAP3 SWAP2 POP POP JUMP JUMPDEST PUSH0 PUSH2 0x8AE DUP3 PUSH2 0x34C JUMP JUMPDEST PUSH2 0x8B8 DUP2 DUP6 PUSH2 0x89A JUMP JUMPDEST SWAP4 POP PUSH2 0x8C8 DUP2 DUP6 PUSH1 0x20 DUP7 ADD PUSH2 0x366 JUMP JUMPDEST DUP1 DUP5 ADD SWAP2 POP POP SWAP3 SWAP2 POP POP JUMP JUMPDEST PUSH0 PUSH2 0x8DF DUP3 DUP5 PUSH2 0x8A4 JUMP JUMPDEST SWAP2 POP DUP2 SWAP1 POP SWAP3 SWAP2 POP POP JUMP INVALID LOG2 PUSH5 0x6970667358 0x22 SLT KECCAK256 ADD 0x2E SWAP10 0xB3 0x2B TSTORE 0xE9 LOG4 JUMPDEST LOG4 0x21 GAS 0xC2 SLOAD 0x27 CREATE2 CALL 0xE4 0xD5 0xE7 KECCAK256 0x2A PUSH8 0x2551D89B96DEB276 CALLDATACOPY PUSH5 0x736F6C6343 STOP ADDMOD XOR STOP CALLER LOG2 PUSH5 0x6970667358 0x22 SLT KECCAK256 SWAP8 NOT KECCAK256 0xDD 0xC9 CALLDATASIZE LOG1 PUSH0 SWAP12 0xAC STATICCALL BASEFEE CALLDATASIZE PREVRANDAO MCOPY MSTORE SWAP12 PUSH25 0xB06206A6E28CB9D81B24EB049FB564736F6C63430008180033 "
		},
		"gasEstimates": {
			"creation": {
				"codeDepositCost": "562400",
				"executionCost": "592",
				"totalCost": "562992"
			},
			"external": {
				"createSimpleStorageContract()": "infinite",
				"simpleStorage()": "infinite"
			}
		},
		"methodIdentifiers": {
			"createSimpleStorageContract()": "1dda6541",
			"simpleStorage()": "6be0d6bf"
		}
	},
	"abi": [
		{
			"inputs": [],
			"name": "createSimpleStorageContract",
			"outputs": [],
			"stateMutability": "nonpayable",
			"type": "function"
		},
		{
			"inputs": [],
			"name": "simpleStorage",
			"outputs": [
				{
					"internalType": "contract SimpleStorage",
					"name": "",
					"type": "address"
				}
			],
			"stateMutability": "view",
			"type": "function"
		}
	]
}